:10000000C80D00200B0400000904000009040000D2
:1000100009040000090400000904000009040000AC
:1000200009040000090400000904000003040000A2
:10003000AD410000090400000504000007040000B1
:100040000919000009190000091900000919000028
:100050000919000009190000091900000919000018
:100060000919000009190000091900000919000008
:1000700009190000091900000919000009190000F8
:1000800009190000091900000919000009190000E8
:1000900009190000091900000919000009190000D8
:1000A00009190000091900000919000009190000C8
:1000B00009190000091900000919000009190000B8
:1000C00080B500AF0121002000F000FBFA225200B1
:1000D00000231000190000F077FD0021002000F03F
:1000E000F5FAFA22520000231000190000F06CFD0E
:1000F000E8E7C046F0B583B000AF386079607B6850
:100100001B681E007B681C687B685D68AC4211DC64
:10011000396823009A1B13005B019B181B01CB1845
:10012000802292001100180004F04EF9AC4201D078
:100130000134EDE7BD4603B0F0BDC04680B500AF69
:10014000C04600F0C5F8464B802292001A60454B2D
:1001500001221A60444A454B1A60454B1B881BB26A
:1001600001331AB2424B1A80424B1B881BB2013337
:100170001AB2404B1A80404B1B881BB201331AB293
:100180003D4B1A803D4B1B881BB201331AB23B4BCF
:100190001A8001F0EFFB3A4B1B881BB201331AB2F5
:1001A000374B1A80374B1B881BB201331AB2354BC1
:1001B0001A80354B1B881BB201331AB2324B1A809E
:1001C000324B1B881BB201331AB2304B1A80304BB2
:1001D0001B881BB201331AB22D4B1A802D4B1B8882
:1001E0001BB201331AB22B4B1A802B4B1B881BB24C
:1001F00001331AB2284B1A80284B1B881BB20133DB
:100200001AB2264B1A80264B1B881BB201331AB236
:10021000234B1A80234B1B881BB201331AB2214B8C
:100220001A8000F0D1FD204B1B881BB201331AB29B
:100230001D4B1A8000F006FB00F0ECFA1B4B1B88EC
:100240001BB201331AB2194B1A8000F04BFD184B48
:100250001B881BB201331AB2154B1A80BD4680BDF4
:10026000440500203C0500204800002040050020F7
:10027000000000202E00002032000020300000206E
:1002800034000020380000203A0000203C0000200C
:10029000280000202A000020360000203E00002018
:1002A00040000020420000202C000020020000201E
:1002B0001A00002080B582B000AF044B7B60FFF7CE
:1002C0003DFFFFF7FDFEBD4602B080BD4046000089
:1002D00080B500AF04490A0004490B001000190062
:1002E000FFF708FFBD4680BD4800002038460000EB
:1002F00080B582B000AF78607B681F2B03D87B6825
:1003000001229A4000E00022024B1A60BD4602B072
:1003100080BDC04600E100E00000000000000000D9
:1003200000000000000000000000000000000000CD
:1003300000000000000000000000000000000000BD
:1003400000000000000000000000000000000000AD
:10035000000000000000000000000000000000009D
:10036000000000000000000000000000000000008D
:10037000000000000000000000000000000000007D
:10038000000000000000000000000000000000006D
:10039000000000000000000000000000000000005D
:1003A000000000000000000000000000000000004D
:1003B000000000000000000000000000000000003D
:1003C000000000000000000000000000000000002D
:1003D000000000000000000000000000000000001D
:1003E000000000000000000000000000000000000D
:1003F00000000000000000000000000000000000FD
:10040000FEE7FEE7FEE7FEE7FEE70D498D460D48F5
:100410000D490E4A002905D01468046004320430E6
:100420000139F9D10A480B490022002903D00260A2
:1004300004300139FBD1FFF73DFF03F073FFFEE706
:10044000C80D002000000020120000005C530000D6
:10045000480000206001000080B582B000AF0200BB
:10046000FB1D1A70BB1D0A1C1A70BB1D1B78022BCA
:1004700004D9354B2921180003F058FEBB1D1B7809
:10048000022B04D9304B2921180003F04FFEBB1D6D
:100490001B78002B04D0BB1D1B78012B1FD03CE028
:1004A000FB1D1B785BB2142B04D9274B2A211800A3
:1004B00003F03CFEFB1D1B785BB2102B04DCFB1D24
:1004C0001B787F2B06D907E0FB1D1B78133BDBB2A3
:1004D000012B01D8012332E00023C0462FE0FB1D91
:1004E0001B785BB2142B04D9174B2D21180003F095
:1004F0001DFEFB1D1B785BB2042B04DCFB1D1B786F
:100500007F2B05D906E0FB1D1B785BB20A2B01D1BE
:10051000012314E00023C04611E0FB1D1B785BB2F1
:10052000142B04D9084B3021180003F0FFFDFB1DEC
:100530001B78022B01D8012301E00023C046C046EE
:100540001800BD4602B080BD4C46000080B582B0A8
:1005500000AF78607B6800221A707B680A225A60BC
:10056000BD4602B080BDC046F0B583B000AF386074
:1005700079607B681B785BB21E007B6800241C5787
:100580007B6801255D57AC420FDC396823009A1B5C
:1005900013005B009B189B00CB181800FFF7D6FFD9
:1005A000AC4202D0631C5CB2EFE7BD4603B0F0BDC5
:1005B000B0B582B000AF634662467A601B785BB22A
:1005C000180000F011F9031E07D0054B1C00054B65
:1005D0001D002000290003F071FEBD4602B0B0BD31
:1005E000AC460000DC460000B0B584B000AF0200AD
:1005F000FB1D1A702023FA1808217B185A607B18FB
:10060000FA1D12781A707B181B785BB2180000F084
:10061000EBF803001A0001235340DBB2002B07D094
:10062000254B1C00254B1D002000290003F046FE31
:1006300008243B191B785BB21A00214B9B56032BF5
:1006400032D03B191B785BB21A001D4B9B56180029
:1006500000F076FD3B191B785BB21A00184B9B56D5
:10066000002B01DB022B04DD164BBE21180003F02A
:100670005DFD1900144A0B005B005B189B00002114
:1006800099540823FB181B785BB2142B04D90D4B2B
:10069000BF21180003F04AFD0823FB181B785BB24A
:1006A0001A00074B032199540823FB189C46FFF7B7
:1006B0007FFFBD4604B0B0BDE4460000A446000084
:1006C000000300206046000018030020B0B586B08B
:1006D00000AF0200FB1D1A70BB1D0A1C1A70FB1D27
:1006E0001B785BB200211800FFF7B6FE03001A006A
:1006F00001235340DBB2002B07D0364B1C00364B96
:100700001D002000290003F0D9FDFB1D1B785BB202
:10071000DA00324BD3187B610C23FB18180000F071
:1007200031FDFB1D1B785BB22D4AD35C022B37D009
:10073000FB1D1B785BB2180000F056F8031E05D0B5
:10074000FB1D1B785BB21800FFF74EFF0C217B18D6
:1007500001221A707B1802225A707B1800229A70AC
:100760007B1800221A71FB1D1B785BB2DA001B4B51
:10077000D3187A181100180000F056FFFB1D1B78E3
:100780005BB2142B06D99A235A00164B110018009D
:1007900003F0CCFCFB1D1B785BB2114A0221D15443
:1007A000BB1D1B78002B09D0FB1D1B785BB2DA0048
:1007B0000A4BD318180000F0A9FE08E0FB1D1B78B7
:1007C0005BB2DA00054BD318180000F0D1FEBD462D
:1007D00006B0B0BD1447000040470000580200209A
:1007E000040000206046000080B582B000AF020027
:1007F000FB1D1A70FB1D1B785BB2054AD356033BE9
:100800005A1E9341DBB2C0461800BD4602B080BDFF
:1008100000030020B0B500AF074B152203211800DC
:1008200003F0B2FD054B1C00054B1D002000290004
:10083000FFF79AFEBD46B0BD00030020180300205C
:10084000F447000080B500AF5A4B5B4A03CA03C3AC
:100850005A4A584B1A60574B594A083303CA03C3C4
:10086000564A544B9A60534B564A103303CA03C33B
:10087000524A504B1A614F4B534A183303CA03C3B1
:100880004E4A4C4B9A614B4B504A203303CA03C328
:100890004A4A484B1A62474B4D4A283303CA03C39E
:1008A000464A444B9A62434B4A4A303303CA03C315
:1008B000424A404B1A633F4B474A383303CA03C38B
:1008C0003E4A3C4B9A633B4B444A403303CA03C302
:1008D0003A4A384B1A64374B414A483303CA03C378
:1008E000364A344B9A64334B3E4A503303CA03C3EF
:1008F000324A304B1A652F4B3B4A583303CA03C365
:100900002E4A2C4B9A652B4B384A603303CA03C3DB
:100910002A4A284B1A66274B354A683303CA03C351
:10092000264A244B9A66234B324A703303CA03C3C8
:10093000224A204B1A671F4B2F4A783303CA03C33E
:100940001E4A1C4B9A671B4B2C4A803303CA03C3B5
:100950001A4A184B80215A50164B882216499B1868
:100960000A0003CA03C3154A124B88215A50114B7F
:10097000902211499B180A0003CA03C30F4A0D4B6A
:1009800090215A500B4B98221D499B180A0003CA0C
:1009900003C30A4A074B98215A50064BA022194913
:1009A0009B180A0003CA03C3044A024BA0215A50F1
:1009B000BD4680BD5802002080030020EC4A0000A4
:1009C000780300207003002088030020900300209B
:1009D000F0030020C8030020C0030020F80300201B
:1009E000B8030020980300203804002008040020E9
:1009F000200400201804002010040020E803002038
:100A0000680300205804002080B582B000AF7860F1
:100A10000A00FB1C1A70FB1C1B78002B02D0034A37
:100A20007B681A60BD4602B080BDC04648490000E0
:100A300080B582B000AF786020220023100019003A
:100A4000BD4602B080BDC04680B582B000AF7860C0
:100A5000396001231800BD4602B080BD80B582B068
:100A600000AF786039607B6819687B683A68126803
:100A70001A607B681960BD4602B080BD80B500AFCA
:100A800000F082F903001A0001235340DBB2002B6F
:100A900009D0022000F03CF900F08CF900F074F964
:100AA000031E00D1FAE7154B1B68180000F086FF03
:100AB000124B1B680021180000F094FF0F4B1B68BD
:100AC00020220021180000F0AFFF0C4B1B68022110
:100AD000180000F0D1FF0A4B180000F0DDFA094BB6
:100AE0001900112000F0F2FE112000F0E1FE034B8E
:100AF0001B68180000F058FFBD4680BD6C04002044
:100B000040110140290B000080B500AF054B1A6869
:100B10005B680120002112184B4102490A604B60BA
:100B2000BD4680BD2000002090B583B000AF1C4BB7
:100B30001B68180000F042FF194B1B68180000F0FA
:100B400047FF174B1B68180000F02EFF154B1800CD
:100B500000F0DEFAFFF7D8FF01240A2C1DDC230089
:100B60005A1E9100104A8A187A600F4A591E89004D
:100B70008A58002A0FD00C4A591E89008A58002A28
:100B800004D10A4B7021180003F0D0FA064A013B49
:100B90009B009B5898470134DFE7BD4603B090BDEA
:100BA0006C040020401101403C030020F847000085
:100BB00080B500AF034B1A685B68C046100019008F
:100BC000BD4680BD2000002080B584B000AF3860F5
:100BD0007960FFF7EDFF3A687B6812184B41BA6005
:100BE000FB60FFF7E5FF02000B00F968994205D8AA
:100BF000F968994204D1B968914201D930BFF0E750
:100C0000BD4604B080BDC046B0B582B000AF7860CC
:100C100039603B680C4A934204DA0C4BD721180028
:100C200003F084FA3B68FA229100180003F018FCE4
:100C300003001C00DB171D0020002900FFF7C4FF84
:100C4000BD4602B0B0BDC04619FCFFFFF84700002A
:100C500080B582B000AF786039603968002904DA65
:100C6000074BE421180003F061FA39680A00C9173C
:100C70000B0010001900FFF7A7FFBD4602B080BDB2
:100C8000F8470000B0B582B000AF786039603B68CB
:100C9000114A934203DB3B68104A934204DD104B38
:100CA000F121180003F042FA3A6813005B019B1A25
:100CB0009B009B18DB0004D5094BF121180003F0C1
:100CC00035FA1C00DB171D0020002900FFF77CFF10
:100CD000BD4602B0B0BDC046653BDFFF9BC42000EF
:100CE000F847000080B500AF074B180028231A0012
:100CF000002103F049FB054B01211800FFF784FE9A
:100D0000FFF7BCFEBD4680BD3C030020640300200D
:100D100080B582B000AF0200FB1D1A70FB1D1B786E
:100D2000022B04D9174B6421180003F0FFF9FB1DB7
:100D30001B78002B04D0FB1D1B78012B02D003E095
:100D4000002302E0012300E00223C0468022D205F6
:100D5000A321C9008C4662441268191C03230B406E
:100D6000DBB203210B4003218A4313431A00802383
:100D7000DB05A321C9008C4663441A60BD4602B05E
:100D800080BDC0468449000080B500AF8023DB05EC
:100D90008322D200944663441B681B021B0EDBB205
:100DA00001221340DBB25A1E9341DBB2C046180049
:100DB000BD4680BD80B500AF024B180001F076FD46
:100DC000BD4680BD0800004080B500AF7F4B0022CB
:100DD0005A607F4A7D4B1A607E4B01225A607C4AE2
:100DE0007C4B1A607C4B02225A60794A7A4B1A601B
:100DF0007A4B03225A60764A784B1A60784B042269
:100E00005A60734A764B1A60764B05225A60704AD4
:100E1000744B1A60744B06225A606D4A724B1A600A
:100E2000724B07225A606A4A704B1A60704B082254
:100E30005A60674A6E4B1A606E4B09225A60644AC8
:100E40006C4B1A606C4B0A225A60614A6A4B1A60FA
:100E50006A4B0B225A605E4A684B1A60684B0C2240
:100E60005A605B4A664B1A60664B0D225A60584ABC
:100E7000644B1A60644B0E225A60554A624B1A60EA
:100E8000624B0F225A60524A604B1A60604B10222C
:100E90005A604F4A5E4B1A605E4B11225A604C4AB0
:100EA0005C4B1A605C4B12225A60494A5A4B1A60DA
:100EB0005A4B13225A60464A584B1A60584B142218
:100EC0005A60434A564B1A60564B15225A60404AA4
:100ED000544B1A60544B16225A603D4A524B1A60CA
:100EE000524B17225A603A4A504B1A60504B182204
:100EF0005A60374A4E4B1A604E4B19225A60344A98
:100F00004C4B1A604C4B1A225A60314A4A4B1A60B9
:100F10004A4B1B225A602E4A484B1A60484B1C22EF
:100F20005A602B4A464B1A60464B1D225A60284A8B
:100F3000444B1A60444B1E225A60254A424B1A60A9
:100F4000424B1F225A60224A404B1A60404B180005
:100F500000F01EFD02003F4B1A603F4B180000F0EE
:100F600017FD02003D4B1A603D493E4B012218001F
:100F700002F08CF83C493D4B0122180002F086F843
:100F800037493B4B0122180000F084FE3649394BAB
:100F90000122180000F07EFE3749384B012218006C
:100FA00001F09CFC3649374B0122180001F096FCF9
:100FB0003549364B0122180001F090FC3449354B7D
:100FC0000122180002F0F8FDBD4680BD6803002034
:100FD000EC4A00007003002078030020800300200A
:100FE000880300209003002098030020A003002025
:100FF000A8030020B0030020B8030020C003002095
:10100000C8030020D0030020D8030020E003002004
:10101000E8030020F0030020F80300200004002073
:1010200008040020100400201804002020040020E0
:101030002804002030040020380400204004002050
:1010400048040020500400205804002060040020C0
:1010500000B0004068040020001001406C04002033
:101060000030004070040020004000407C0400205C
:101070008804002090040020008000409804002094
:1010800000900040A004002000A00040A804002020
:1010900000200040B004002080B588B000AF786028
:1010A0007B68FB61FB691B0B1B03BB61FB697F2238
:1010B00013407F2B04D9154B3B21180003F036F861
:1010C000DAB21723FB1892081A70BB69C12292008A
:1010D000944663443B613B69FB603B6903221340D8
:1010E00004D00A4B4421180003F020F81722BB1843
:1010F0001B781F2B04D8BB181B7801229A4000E0F4
:101100000022FB681A60BD4608B080BD944900000B
:1011100080B584B000AF78607B68FB607B68032299
:10112000134004D0054B6521180002F0FFFFFB6857
:1011300000221A60BD4604B080BDC046944900003C
:1011400080B582B000AF0200FB1D1A700C4AFB1D77
:101150001B785BB24533FF339B00D3181B681A0022
:1011600003239A4313001A000549FB1D1B785BB249
:101170004533FF339B00CB181A60BD4602B080BDDB
:101180000060004080B582B000AF78607B680122CB
:101190009A707B680022DA707B6800221A71BD4663
:1011A00002B080BD80B582B000AF786040220023DD
:1011B00010001900BD4602B080BDC04680B582B0A7
:1011C00000AF786039607B685A683B685B68D31A07
:1011D0005A425341DBB21800BD4602B080BDC04642
:1011E00090B583B000AF786039607B6819687B6820
:1011F0003A6811CA11C37B681960BD4603B090BD3F
:1012000080B582B000AF78600A00FB1C1A70FB1C2E
:101210001B78052B04D9054B4A21180002F086FFE4
:101220000123C0461800BD4602B080BDA44900009D
:1012300080B584B000AF7860A023DA057B685B6876
:10124000C133FF339B00D318FB60A023DA057B6812
:101250005B68C133FF339B00D3181B68DB07DB0FD0
:10126000DBB2012B04D9074B2821180002F05EFFE6
:10127000002B01D1012300E00223C0461800BD4627
:1012800004B080BDB4490000B0B584B000AF786050
:101290000A00FB1C1A70FB1C1A787B6811001800EE
:1012A000FFF7AEFF03001A0001235340DBB2002B0F
:1012B00007D0394B1C00394B1D002000290002F0DB
:1012C000FDFF7B685A68A023D9051300C133FF33A3
:1012D0009B00CB18FB60FB1C1B78002B03D0FB1C76
:1012E0001B78022B04D92E4B3821180002F01EFF68
:1012F000FB1C1B78012B01D1002000E00120A02362
:10130000D9051300C133FF339B00CB181B681900AC
:1013100001230340DBB201200340012081430B4342
:101320001900A023D8051300C133FF339B00C31855
:101330001960FB1C1B78002B03D0FB1C1B78022BB5
:1013400004D9174B3B21180002F0F0FEFB1C1B7860
:10135000012B01D1002000E00120A023D9051300BA
:10136000C133FF339B00CB181B68190001230340D6
:10137000DBB2012003405B00022081430B431900D4
:10138000A023D8051300C133FF339B00C3180A0004
:101390001A60BD4604B0B0BDC4490000F849000061
:1013A000B449000080B582B000AF7860A023DB05AF
:1013B000A222D200944663441B681A007B685B68D3
:1013C000DA401300DBB201221340DBB2013B5A4288
:1013D0005341DBB2C0461800BD4602B080BDC046D6
:1013E00090B583B000AF7860A023DA057B685B68B6
:1013F000C133FF339B00D3181B681B079B0FDBB265
:101400001C000021200002F04DFE031E04DA0A4BEE
:101410005621180002F08AFE002C02D0012C02D0C6
:1014200003E0032302E0052300E00423C046180084
:10143000BD4603B090BDC046B4490000B0B582B00F
:1014400000AF78600A00FB1C1A70FB1C1A787B68DE
:1014500011001800FFF7D4FE03001A0001235340C7
:10146000DBB2002B07D0264B1C00264B1D002000B2
:10147000290002F023FF7B6859680B001F2B04D959
:10148000214B6621180002F051FEFB1C1B78022B39
:1014900003D9FB1C1B78052B04D91B4B67211800B3
:1014A00002F044FEFB1C1B78032B04D0FB1C1B78B2
:1014B000052B02D003E0002302E0012300E0032318
:1014C000C046A022D0050A00C132FF329200821825
:1014D0001268181C03230340DBB2032003409B0067
:1014E0000C20824313431A00A023D8050B00C133FC
:1014F000FF339B00C3181A60BD4602B0B0BDC046A2
:10150000004A0000F8490000B449000080B584B0EA
:1015100000AF78607B685A6813001F2B04D9124B08
:101520007521180002F002FEA023DB050F498C464E
:1015300063441B68FB60F968012393401A00A023F1
:10154000DB050A48844663441B6818000B001343FC
:101550001800A023DB05054A9446634402001A6084
:10156000BD4604B080BDC046B4490000040500007B
:1015700080B584B000AF78607B6859680B001F2B82
:1015800004D9124B8021180002F0D0FDA023DB0506
:101590000F4A944663441B68FB60FA6801238B4042
:1015A000D943A023DB050A48844663441B6818001E
:1015B0000B0013401800A023DB05054A9446634442
:1015C00002001A60BD4604B080BDC046B4490000A8
:1015D00004050000B0B582B000AF78607B681800E9
:1015E000FFF726FE0300022B07D00D4B1C000D4B0E
:1015F0001D002000290002F061FE7B681800FFF743
:10160000D1FE031E04D07B681800FFF7B1FF03E092
:101610007B681800FFF77AFFBD4602B0B0BDC04638
:10162000344A0000F849000080B584B000AF78600B
:101630003960A023DA057B685B68C133FF339B0008
:10164000D318FB607B685B681F2B04D9944B9A21ED
:10165000180002F06BFD3B681B78012B04D9904BFE
:101660009C21180002F062FD3B681B78002B01D121
:10167000002100E00121A023DA057B685B68C1330B
:10168000FF339B00D3181B681A0001230B40DBB209
:1016900001210B4001218A4313431A00A023D905DD
:1016A0007B685B68C133FF339B00CB181A607B6893
:1016B0005B681F2B04D97A4B9A21180002F036FD83
:1016C0003B689B78012B04D9754BA021180002F0D0
:1016D0002DFD3B689B78002B01D1002100E001210A
:1016E000A023DA057B685B68C133FF339B00D31806
:1016F0001B681A0001230B40DBB201210B405B0089
:1017000002218A4313431A00A023D9057B685B6832
:10171000C133FF339B00CB181A607B685B681F2BBB
:1017200004D95F4B9A21180002F000FD3B685B78FA
:10173000022B04D95A4BA421180002F0F7FC3B6895
:101740005B78002B03D0022B03D1002302E003239C
:1017500000E00123C046A022D1057A685268C13258
:10176000FF3292008A181268191C03230B40DBB267
:1017700003210B409B000C218A4313431A00A02332
:10178000D9057B685B68C133FF339B00CB181A60B7
:101790007B685B681F2B04D9414B9A21180002F02B
:1017A000C5FC3B68DB78072B04D93D4BA921180009
:1017B00002F0BCFC3B68DB78062B12D89A00394B50
:1017C000D3181B689F4600230CE001230AE0022384
:1017D00008E0032306E0042304E0052302E00623D7
:1017E00000E00723C046A022D1057A685268C132C2
:1017F000FF3292008A181268191C07230B40DBB2D3
:1018000007210B401B0228490A4013431A00A0235A
:10181000D9057B685B68C133FF339B00CB181A6026
:101820007B685B681F2B04D91D4B9A21180002F0BE
:101830007DFC3B681B79022B04D9194BB32118009E
:1018400002F074FC3B681B79002B02D0012B02D004
:1018500003E0002302E0022300E00323C046A022AD
:10186000D1057A685268C132FF3292008A18126834
:10187000191C03230B40DBB203210B401B040B4953
:101880000A4013431A00A023D9057B685B68C13363
:10189000FF339B00CB181A60BD4604B080BDC04624
:1018A000B4490000684A0000FFF8FFFFFFFFFCFF9B
:1018B00080B582B000AF0200FB1D1A70FB1D1B78C3
:1018C0001800FEF715FDBD4602B080BD80B582B0A0
:1018D00000AF02003960FB1D1A70FB1D1B781F2B27
:1018E00004D9074B5821180002F020FCFB1D1A7880
:1018F000044B92003968D150BD4602B080BDC0464D
:10190000144B0000BC04002080B582B000AFEFF3A0
:1019100005837B607B68FF2213407B607B68103B04
:101920001F2B04D9114B6921180002F0FFFBFA1C90
:101930001370FB1C1A780E4B9200D358002B11D059
:10194000FB1C1A780A4B9200D358002B04D1074B8A
:101950006C21180002F0EAFBFB1C1A78044B920081
:10196000D3589847BD4602B080BDC046144B000016
:10197000BC04002080B500AF044B180080231A007F
:10198000002102F001FDBD4680BDC046BC04002020
:1019900080B584B000AF78607B68FB60FB6818009E
:1019A000BD4604B080BDC04680B582B000AF78604F
:1019B0007B6801221A60BD4602B080BD80B582B04E
:1019C00000AF78607B6801225A60BD4602B080BDDE
:1019D00080B582B000AF78607B6801229A60BD4616
:1019E00002B080BD80B582B000AF78600A00BB1C39
:1019F0001A807B68A122D200944663441B681A00B7
:101A0000BB1C1B881B051B0D9BB21B051B0D120B62
:101A1000120313431A007B68A121C9008C4663445A
:101A20001A60BD4602B080BD80B584B000AFF860DA
:101A30007A600B203B180A1C1A70FA683B181B7856
:101A40005BB25133FF339B00D3181B681A007B68CD
:101A50001B021B0A1B021B0A120E120613431A005A
:101A6000F9683B181B785BB25133FF339B00CB18EE
:101A70001A60BD4604B080BD90B587B000AF7860F5
:101A80000A00FB1C1A70FB1C1B78052B04D97E4B2B
:101A90008321180002F04AFBFB1C1A78042A00D9A3
:101AA000BDE01B789A00794BD3181B689F467B6872
:101AB000D0229200944663441B681A00012313430A
:101AC0001A007B68D02189008C4663441A60D7E0F5
:101AD0007B68D0229200944663441B681A0002235C
:101AE00013431A007B68D02189008C4663441A6036
:101AF000C6E07B68D0229200944663441B681B03B7
:101B00001B0FDAB214243B190F210A4010001A7877
:101B10000F218A43111C021C0A431A703B191B78BF
:101B20001B071B0FD9B27B68D022920094466344F6
:101B30001B681A0001230B43DBB20F210B401B046F
:101B400053490A4013431A007B68D02189008C4610
:101B500063441A6094E07B68D02292009446634408
:101B60001B681B031B0FDAB210243B190F210A401C
:101B700010001A780F218A43111C021C0A431A70A4
:101B80003B191B781B071B0FD9B27B68D022920030
:101B9000944663441B681A0002230B43DBB20F21F7
:101BA0000B401B043A490A4013431A007B68D021BA
:101BB00089008C4663441A6062E07B68D022920000
:101BC000944663441B681B031B0FDAB20C243B19B9
:101BD0000F210A4010001A780F218A43111C021CA1
:101BE0000A431A703B191B781B071B0FD9B27B687D
:101BF000D0229200944663441B681A0004230B43CE
:101C0000DBB20F210B401B0421490A4013431A0089
:101C10007B68D02189008C4663441A6030E07B6881
:101C2000D0229200944663441B681B031B0FDAB258
:101C300008243B190F210A4010001A780F218A430B
:101C4000111C021C0A431A703B191B781B071B0F3F
:101C5000D9B27B68D0229200944663441B681A0074
:101C600008230B43DBB20F210B401B0408490A4039
:101C700013431A007B68D02189008C4663441A60A4
:101C8000C046BD4607B090BD284B0000344B000055
:101C9000FFFFF0FF80B584B000AFF860B960FB1DB6
:101CA0001A70FB1D1B78002B02D0044AFB681A60D7
:101CB000FB68BA685A60BD4604B080BDA04D000004
:101CC00080B582B000AF7860402200231000190078
:101CD000BD4602B080BDC04680B582B000AF78601E
:101CE00039607B685A683B685B68D31A5A42534133
:101CF000DBB21800BD4602B080BDC04690B583B0CF
:101D000000AF786039607B685A683B685B689A42CC
:101D100004D0084B8221180002F008FA7B68196889
:101D20007B683A6811CA11C37B681960BD4603B06D
:101D300090BDC046484B0000B0B582B000AF6346CE
:101D400062467A601B68180000F084F803001A00ED
:101D500001235340DBB2002B07D0054B1C00054B81
:101D60001D002000290002F0A9FABD4602B0B0BD56
:101D70005C4B00008C4B000080B584B000AF7860F5
:101D80001823FA1808217B185A607B187A681A60A1
:101D90007B181B685B68A022D200944663441B68D2
:101DA0001A0007239A431300012213431A007B18D9
:101DB0001B685B68A020C000844663441A607B18DF
:101DC0009C46FFF7B9FFBD4604B080BDB0B582B0F8
:101DD00000AF634662467A601B68180000F03AF86C
:101DE000031E07D0054B1C00054B1D0020002900D9
:101DF00002F064FABD4602B0B0BDC046944B00008C
:101E00008C4B000080B584B000AF78601823FA18BE
:101E100008217B185A607B187A681A607B181B6847
:101E20005B68A022D200944663441B681A00072313
:101E30009A4313001A007B181B685B68A020C0003F
:101E4000844663441A607B189C46FFF7BFFFBD467B
:101E500004B080BD80B582B000AF78607B685B68FD
:101E6000A022D200944663441B68DBB207221340D1
:101E7000DBB2013B5A425341DBB2C0461800BD46BB
:101E800002B080BDB0B584B000AFF860B9607A60D0
:101E90003B60FB681800FFF7DDFF031E07D0624BB5
:101EA0001C00624B1D002000290002F007FAFB68AD
:101EB0005A68B968A123DB00D150FB685B687A6877
:101EC0005B495A50FB685A683968A223DB00D1503D
:101ED0002023FB181B78062B04D9564B6D211800C4
:101EE00002F024F92023FB181A78052A17D81B784A
:101EF0009A00514BD3181B689F4680239B0410E027
:101F00008023DB040DE080231B050AE080235B05B2
:101F100007E080239B0504E08023DB0501E08023AC
:101F20001B06C046FA685268444953502423FB18E4
:101F30001B78012B04D93F4B7621180002F0F6F8EC
:101F40002423FB181B78002B01D1002100E0012184
:101F5000FB685B683A4A944663441B681A00012395
:101F60000B40DBB201210B4001218A4313431A00CD
:101F7000FB685B6832498C4663441A602C23FB186B
:101F80001B78012B04D92B4B7A21180002F0CEF8D4
:101F90002C23FB181B78002B01D1002100E001212C
:101FA000FB685B68264A944663441B681A00012359
:101FB0000B40DBB201210B405B0002218A4313433B
:101FC0001A00FB685B681E498C4663441A6028232C
:101FD000FB181B78012B04D9164B7E21180002F048
:101FE000A5F82823FB181B78002B01D1002100E065
:101FF0000121FB685B68124A944663441B681A001F
:1020000001230B40DBB201210B409B0004218A43DA
:1020100013431A00FB685B6809498C4663441A60E5
:10202000BD4604B0B0BDC046C44B0000084C000023
:102030000C050000F44B0000184D000024050000C2
:1020400054050000B0B582B000AF78607B6818001E
:10205000FFF700FF031E07D00F4B1C000F4B1D00A6
:102060002000290002F02AF97B685A68A123DB00CE
:1020700001214942D1507B685B68094901225242E3
:102080005A507B685A68A223DB0001214942D15093
:10209000BD4602B0B0BDC046104C0000084C000068
:1020A0000C05000080B582B000AF78600023C04608
:1020B0001800BD4602B080BDF0B5C64600B588B078
:1020C00000AFF86039607A60BB607B681C687B6831
:1020D0005B689846FB681800FFF7E4FF031E07D013
:1020E000304B1D00304B1E002800310002F0E6F896
:1020F0002200FB68596884235B000020C8504445D7
:1021000042DC38682300991A4118F96139689B1A32
:10211000C95CFB687B6113203B1819707B695B68A5
:1021200022498C4663441B6819003B181B78FF202A
:1021300081430B4319007B695B681C4884466344F8
:1021400019607B69596884235B00CB58002B01D14F
:10215000C046F6E77B695B68A321C9008C466344EF
:102160001B68D9B211257B1919707B6959688423C2
:102170005B000020C8507B1919781B23FB181970CD
:10218000444501D00134BCE712217B1800221A70AB
:102190007B181B78C0461800BD4608B080BCB84606
:1021A000F0BDC046404C0000744C00001C0500000F
:1021B000F0B593B000AF7861B960FA603B61FB683D
:1021C0001C68FB685D687B691800FFF76BFF030004
:1021D000012B07D0C54B3B60C54B7B6038687968E5
:1021E00002F06CF823007A695168842252000020C2
:1021F00088507A695268BF498C4662441268D2B2EC
:1022000001210A40D2B2002A00D0B0E0AC4200DD89
:102210005DE1B8682200D11A49004118F963B96834
:10222000D01A4000415A090289B2FF2904D9B24BA1
:10223000C321180001F07AFFC8B27969B9632F266B
:102240000821791889190870B96B4968AB48844628
:102250006144096808000821791889190978FF265E
:10226000B04301430800B96B4968A44EB4466144C9
:102270000860B96B4868842149004158002901D1A0
:10228000C046F6E7B96B4968A320C00084466144A4
:102290000968C8B214210826B446BC4461440870D9
:1022A000B96B486884214900002646501421082053
:1022B0008446BC44614408783B210826B446BC44AB
:1022C00061440870B968D21A5200525AFF210A407C
:1022D00092B2FF2A04D9884BC621180001F026FFCC
:1022E000D1B27A693A6327200826BA1912181170F8
:1022F0003A6B526881498C46624412681100BA19DF
:1023000012181278FF2081430A4311003A6B526879
:102310007A488446624411603A6B516884225200C4
:102320008A58002A01D1C046F6E73A6B5268A321C9
:10233000C9008C4662441268D1B215260822B8182A
:10234000821911703A6B5168842252000020885023
:102350000822BA18921911783B2208208446BC44FE
:1023600062441170AC4200D1B1E0013451E7AC429B
:1023700000DDACE0B8682200D11A49004118796448
:10238000B968D01A4000415AFF20014089B2FF29A4
:1023900004D9594BCC21180001F0C8FEC8B27969A4
:1023A000B9621F260821791889190870B96A496825
:1023B000524884466144096808000821791889193F
:1023C0000978FF26B04301430800B96A49684B4EBB
:1023D000B44661440860B96A48688421490041589C
:1023E000002901D1C046F6E7B96A4968A320C000B8
:1023F000844661440968C8B212210826B446BC4428
:1024000061440870B96A4868842149000026465032
:10241000122108208446BC44614408783B210826E8
:10242000B446BC4461440870B968D21A5200525A8A
:10243000120292B2FF2A04D92F4BCF21180001F0CB
:1024400075FED1B27A693A6217200826BA191218B5
:1024500011703A6A526829498C4662441268110028
:10246000BA1912181278FF2081430A4311003A6A00
:10247000526822488446624411603A6A5168842254
:1024800052008A58002A01D1C046F6E73A6A5268DB
:10249000A321C9008C4662441268D1B213260822D7
:1024A000B818821911703A6A5168842252000020CB
:1024B00088500822BA18921911783B2208208446C5
:1024C000BC4462441170AC4201D0013452E7162181
:1024D00008203B185B1800221A703B185B181B7809
:1024E000C0461800BD4613B0F0BDC0467C4C00008D
:1024F000744C000054050000F44B00001C05000063
:10250000F0B5C64600B588B000AFF86039607A60B3
:10251000BB60FB681800FFF7C5FD031E07D0324BF8
:102520001C00324B1D002000290001F0C7FE7B6813
:102530001B681800FB685A6884235B000021D15097
:102540007B681B687A685268934240DC3D681C00D7
:10255000211A6918F96139688846F968B961B96959
:102560004968234DAC46614409680D00FF218D4345
:1025700029000D00B96949681D4EB44661440D60DB
:10258000B9694D68842149006958002901D1C046C4
:10259000F6E7B9694968A325ED00AC4661440968CE
:1025A000CDB2162179180D70B9694D6884214900A2
:1025B0000026B44666466E50162179180D78211A09
:1025C0002C1C45466C54934201D00133BEE71721C1
:1025D0007B1800221A707B181B78C0461800BD4675
:1025E00008B080BCB846F0BDB04C0000744C000090
:1025F0001C050000F0B58FB000AFF86039607A605C
:10260000BB60FB681800FFF74DFD0300012B07D0EE
:10261000A24B1C00A24B1D002000290001F04EFE21
:102620007B681B68FA685168842252000020885039
:10263000FA6852689B498C4662441268D2B2012102
:102640000A40D2B2002A00D08EE07A681268796817
:102650004868824200DD15E13D681100CC1A640033
:102660002C19FC62FC687C627C6A64688E4DAC4606
:10267000644424682500FF24A5432C0025007C6ABF
:102680006468894EB446644425607C6A6568842425
:1026900064002C59002C01D1C046F6E77C6A6468BE
:1026A000A325ED00AC4664442468E5B21A243C1925
:1026B00025707C6A65688424640000262E511A24E3
:1026C0003C1925783326BC192570BC192478A5B28D
:1026D0003C682D02AEB2CD1A6D002E53FC68BC6270
:1026E000BC6A6468704DAC46644424682500FF24CD
:1026F000A5432C002500BC6A64686B4EB446644454
:102700002560BC6A6568842464002C59002C01D1C2
:10271000C046F6E7BC6A6468A325ED00AC46644495
:102720002468E5B219243C192570BC6A65688424C4
:10273000640000262E5119243C19257833243C19B5
:1027400025703C68CD1A6D002E5B33243C1924782B
:10275000A5B23C683543ADB2C91A49000D53824257
:1027600000D18FE0013277E77A68126879684868AB
:10277000824200DD86E03D681100CC1A64002C190D
:102780007C63FC68FC61FC696468474DAC4664444A
:1027900024682500FF24A5432C002500FC696468FB
:1027A000414EB44664442560FC6965688424640035
:1027B0002C59002C01D1C046F6E7FC696468A325BA
:1027C000ED00AC4664442468E5B218243C19257039
:1027D000FC6965688424640000262E5118243C1985
:1027E000257833243C1925703C68CD1A6D002E5B8A
:1027F00033243C192478A5B23C683543AEB2CD1AD7
:102800006D002E53FC683C623C6A6468264DAC4601
:10281000644424682500FF24A5432C0025003C6A5D
:102820006468214EB446644425603C6A656884242B
:1028300064002C59002C01D1C046F6E73C6A64685C
:10284000A325ED00AC4664442468E5B217243C1986
:1028500025703C6A65688424640000262E51172484
:102860003C1925783326BC192570BC192478A5B2EB
:102870003C682D02ADB2C91A49000D53824201D005
:10288000013278E71B217B1800221A707B181B7815
:10289000C0461800BD460FB0F0BDC046E44C000075
:1028A000744C0000540500001C05000080B584B085
:1028B00000AF78607B68FB607B680322134004D024
:1028C000054B2B21180001F031FCFB6801221A6036
:1028D000BD4604B080BDC046C84D000080B584B080
:1028E00000AFF860B960FB1D1A70FB1D1B78002B50
:1028F00002D0044AFB681A60FB68BA685A60BD4699
:1029000004B080BD904E000080B582B000AF78600A
:102910004022002310001900BD4602B080BDC04611
:1029200080B582B000AF786039607B685A683B68D8
:102930005B68D31A5A425341DBB21800BD4602B05D
:1029400080BDC04690B583B000AF786039607B68C9
:102950005A683B685B689A4204D0084B9B21180078
:1029600001F0E4FB7B6819687B683A6811CA11C3FF
:102970007B681960BD4603B090BDC046D84D0000CD
:1029800080B582B000AF78607B685B6801221A6016
:10299000BD4602B080BDC04680B582B000AF786051
:1029A0007B685B6801225A60BD4602B080BDC046AC
:1029B00080B582B000AF78607B685B680122DA6026
:1029C000BD4602B080BDC04680B582B000AF786021
:1029D0000A00FB1C1A707B685B68A222D200944636
:1029E00063441B681A00FB1C1B780F210B40DBB2F1
:1029F0000F210B400F218A4313431A007B685B6849
:102A0000A221C9008C4663441A60BD4602B080BD55
:102A100080B582B000AF78600A00FB1C1A70FB1C06
:102A20001B78012B04D9124B5621180001F07EFBB4
:102A3000FB1C1B78002B01D1002100E001217B68E9
:102A40005B680C4A944663441B681A0001230B40E0
:102A5000DBB201210B4001218A4313431A007B683A
:102A60005B6804498C4663441A60BD4602B080BD71
:102A7000E84D000004050000F0B583B000AF6446E7
:102A800063467B602368180000F068F803001A00B2
:102A90002379934207D0054B1D00054B1E002800EB
:102AA000310001F00BFCBD4603B0F0BDF84D000055
:102AB000244E000080B586B000AF78600A00FB1C91
:102AC0001A702023FA180C217B189A607B187A68F8
:102AD0001A607B18FA1C12781A717B181B79032B69
:102AE00004D91D4B6521180001F020FB0C23FB18B5
:102AF0001B79022B09D00AD8002B02D0012B02D05F
:102B000005E0012304E0002302E0022300E00323A8
:102B1000C0460C203A1812685268A121C9008C46A0
:102B200062441268191C03230B40DBB203210B40E3
:102B300003218A4313431A003B181B685B68A121D9
:102B4000C9008C4663441A603B189C46FFF794FF0B
:102B5000BD4606B080BDC046E84D000080B582B0DD
:102B600000AF78607B685B68A122D2009446634422
:102B70001B689B079B0FDBB2032B04D90B4B732104
:102B8000180001F0D3FA022B08D009D8002B03D08B
:102B9000012B05D1002304E0012302E0022300E021
:102BA0000323C0461800BD4602B080BDE84D0000BA
:102BB000F0B585B000AF786008001100FB1C021C66
:102BC0001A70BB1C0A1C1A70BB1C1B78002B35D05A
:102BD0007B685B68C125AD005A1912681203120F99
:102BE000D1B20C26BA190F2001400C0011780F2029
:102BF0008143081C211C01431170BA191278120775
:102C0000120FD2B21000FA1C127852B20121914078
:102C10000A00D2B20243D1B25A191268081C0F211D
:102C20000140C9B20F2001400904214802400A4373
:102C3000C12189008C4663441A6036E07B685B687A
:102C4000C125AD005A1912681203120FD1B208261D
:102C5000BA190F2001400C0011780F208143081C85
:102C6000211C01431170BA1912781207120FD2B247
:102C70001000FA1C127852B2012191400A00D2B21F
:102C8000D243D2B20240D1B25A191268081C0F21A5
:102C90000140C9B20F2001400904054802400A431F
:102CA000C12189008C4663441A60BD4605B0F0BD61
:102CB000FFFFF0FF90B583B000AF78600C0010000C
:102CC0001900FB1C221C1A70BB1C021C1A707B1CF6
:102CD0000A1C1A70FB1C1B785BB2032B04D98B4BAC
:102CE0009421180001F022FAFB1C1B785BB2022B26
:102CF00000D18BE0FB1C1B785BB2022B00DDC3E034
:102D0000FB1C1B785BB2002B05D0FB1C1B785BB255
:102D1000012B3DD0B8E07B1C1B78002B01D0012299
:102D200000E000227B685B68802189008C46634458
:102D30001B68190001231340012291430A00134329
:102D400019007B685B6880229200944663440A0005
:102D50001A60BB1C1B78002B01D0012200E000226E
:102D60007B685B68802189008C4663441B6819007E
:102D7000012313401B02664A0A40134319007B6873
:102D80005B6880229200944663440A001A60B8E0AF
:102D90007B1C1B78002B01D0012200E000227B6805
:102DA0005B68802189008C4663441B6819000123FD
:102DB00013405B00022291430A00134319007B6811
:102DC0005B6880229200944663440A001A60BB1C30
:102DD0001B78002B01D0012200E000227B685B6899
:102DE000802189008C4663441B681900012313402D
:102DF0005B02484A0A40134319007B685B688022E3
:102E00009200944663440A001A607AE07B1C1B78A7
:102E1000002B01D0012200E000227B685B6880214A
:102E200089008C4663441B681900012313409B00F2
:102E3000042291430A00134319007B685B688022D7
:102E40009200944663440A001A60BB1C1B78002B56
:102E500001D0012200E000227B685B6880218900AC
:102E60008C4663441B681900012313409B022A4AC5
:102E70000A40134319007B685B68802292009446E5
:102E800063440A001A603CE07B1C1B78002B01D0D5
:102E9000012200E000227B685B68802189008C466B
:102EA00063441B68190001231340DB00082291438F
:102EB0000A00134319007B685B68802292009446E5
:102EC00063440A001A60BB1C1B78002B01D001224E
:102ED00000E000227B685B68802189008C466344A7
:102EE0001B68190001231340DB020C4A0A401343FC
:102EF00019007B685B6880229200944663440A0054
:102F00001A60C046BD4603B090BDC046E84D000003
:102F1000FFFEFFFFFFFDFFFFFFFBFFFFFFF7FFFFD0
:102F200080B584B000AFF8607A600B203B180A1CB3
:102F30001A70FB685B683A18127852B25132FF324D
:102F400092007968D150BD4604B080BD80B582B092
:102F500000AF78600A00FB1C1A707B685B68FA1C83
:102F6000127852B2103292000121D150BD4602B007
:102F700080BDC04680B582B000AF78600A00FB1CFF
:102F80001A70FB1C00229A567B6811001800FFF78C
:102F9000DDFFFB1C00229A567B681100180000F030
:102FA00007F80300C0461800BD4602B080BDC04609
:102FB00080B582B000AF78600A00FB1C1A707B6895
:102FC0005B68FA1C127852B25132FF329200D35829
:102FD000C0461800BD4602B080BDC04680B582B074
:102FE00000AF78607B685B68C0461800BD4602B0E1
:102FF00080BDC04680B582B000AF78607B685B68FA
:103000000433C0461800BD4602B080BD80B582B012
:1030100000AF78607B685B680833C0461800BD4627
:1030200002B080BD80B582B000AF78607B685B681D
:103030000C33C0461800BD4602B080BD80B582B0DA
:1030400000AF78600A00FB1C1A707B685A68FB1C92
:103050001B785BB210339B00D318C0461800BD46E6
:1030600002B080BD80B582B000AF78600A00FB1C62
:103070001A707B685A68FB1C1B785BB250339B004C
:10308000D318C0461800BD4602B080BD80B584B0DC
:1030900000AFF860B960FB1D1A70FB1D1B78002B98
:1030A00002D0064AFB681A60FB68BA685A60FB687F
:1030B00001221A72BD4604B080BDC04618500000FF
:1030C00080B582B000AF7860602200231000190044
:1030D000BD4602B080BDC04680B582B000AF78600A
:1030E00039607B685A683B685B689A420CD17B68A0
:1030F0001B7A01225340DAB23B681B7A5340DBB2A1
:10310000002B01D0012300E000231800BD4602B0CF
:1031100080BDC046B0B582B000AF786039607B68D2
:103120005A683B685B689A4204D0084B63211800D8
:1031300000F0FCFF7B6819687B683A6831CA31C3CC
:103140007B681960BD4602B0B0BDC046DC4E0000D1
:1031500080B582B000AF78607B685A6882235B00DC
:103160000021D1507B685B6801225A617B685A68F4
:1031700082235B00D358002B01D1C046F6E7BD4641
:1031800002B080BD80B582B000AF78607B685B68BC
:10319000A022D200944663441B681A0007239A4376
:1031A0001300052213431A007B685B68A021C90045
:1031B0008C4663441A60BD4602B080BD80B582B0C3
:1031C00000AF78607B685B68A022D20094466344BD
:1031D0001B681A0007239A4313001A007B685B6878
:1031E000A021C9008C4663441A60BD4602B080BD70
:1031F00080B582B000AF78607B685B68A022D200A7
:10320000944663441B68DBB207221340DBB2053BE4
:103210005A425341DBB2C0461800BD4602B080BDE1
:1032200080B584B000AFF860B9607A601A00FB1C0A
:103230001A70FB685A68B968A123DB00D150FB689B
:103240005B687A6811495A50FB1C1B78022B04D921
:103250000F4B5E21180000F069FFFB1C1B78002B50
:1032600004D0FB1C1B78012B03D005E0CC235B04AE
:1032700004E08023DB0401E0CD23DB04C046FA68D0
:10328000526804495350BD4604B080BD0C0500008F
:10329000E84E00002405000080B582B000AF7860E1
:1032A0007B685A68A123DB0001214942D1507B6829
:1032B0005B680349012252425A50BD4602B080BDAC
:1032C0000C050000F0B58BB000AF7861BA60FB6010
:1032D0000A2308229446BC4463440A1C1A80FB68F3
:1032E0001C68FB685D687B691800FFF781FF0300BD
:1032F0001A0001235340DBB2002B07D0774B3B6011
:10330000774B7B603868796800F0D8FF2600754BF2
:103310009C4204D1744B7A21180000F007FF631C13
:103320007B62102308229446BC446344180000F0DA
:10333000D9FEAC4207DD172308229446BC446344FF
:1033400000221A70BFE07B695B68684A9446634458
:10335000674A12681A600A2308229446BC446344F0
:103360001B885B089AB27F2A04D95F4B872118001B
:1033700000F0DCFE7B695B68B121C9008C466344C8
:103380001B6819007F231340DBB27F2213407F228A
:1033900091430A00134319007B695B68B122D20094
:1033A000944663440A001A60AC4204DD4E4B8A2105
:1033B000180000F0BBFEB96820007B695B684D4ACD
:1033C000944663441B681A00831BCB5CFF218A432D
:1033D00013431A007B695B6846498C4663441A6054
:1033E0007B695B6801229A607B695A6892235B0063
:1033F000D3583B623B6A002B18D07B695B683B4A21
:10340000944663441B68BB61172308229446BC445E
:10341000634401221A707B695A6892235B00002181
:10342000D1507B695B6801225A614CE07B695A6824
:103430008E235B00D358002B00D1D5E77B695A68F7
:103440008E235B000021D1507B6A9D422CDB7B6A7E
:103450009C4202DC7B6A9D4204DA234BA8211800BF
:1034600000F064FEB968786A7B695B68214A94461B
:1034700063441B681A00831BCB5CFF218A43134300
:103480001A007B695B681B498C4663441A607B6A3F
:10349000144A934204D1144BA921180000F046FEAF
:1034A0007B6A01337B629FE77B691B7A002B03D029
:1034B0007B691800FFF74CFE172308229446BC4492
:1034C000634400221A70172308229446BC446344C4
:1034D0001B78C0461800BD460BB0F0BDF44E00008E
:1034E0001C4F0000FFFFFF7FE84E0000C4040000F7
:1034F000244F00001C050000B0B588B000AFF86094
:103500003A607B600A23FB180A1C1A80FB681800CB
:10351000FFF76EFE03001A0001235340DBB2002BBD
:1035200007D0944B1C00944B1D002000290000F094
:10353000C5FE7B681B6818007B681A687B685B683F
:103540009A4204DD1323FB1800221A7009E1FB687C
:103550005B688A4A94466344894A12681A600A235F
:10356000FB181B885B089AB27F2A04D9854BCA21B5
:10357000180000F0DBFDFB685B68B121C9008C46D8
:1035800063441B6819007F231340DBB27F22134082
:103590007F2291430A0013431900FB685B68B12244
:1035A000D200944663440A001A607B681A687B68FC
:1035B0005B689A4225D1FB685B6880229200944642
:1035C00063441B681A00022313431A00FB685B68FC
:1035D000802189008C4663441A60FB685B68802206
:1035E0009200944663441B681A0001239A43130017
:1035F0001A00FB685B68802189008C4663441A606E
:1036000024E0FB685B6880229200944663441B6858
:103610001A00012313431A00FB685B6880218900AC
:103620008C4663441A60FB685B6880229200944673
:1036300063441B681A0002239A4313001A00FB68B4
:103640005B68802189008C4663441A60FB685B6874
:1036500001221A607B681B68BB617B685B687B61C9
:10366000BA697B699A4200DD77E0BB69FB61FB6860
:103670005A6892235B00D358002B0ED01323FB18FB
:1036800001221A70FB685A6892235B000021D15016
:10369000FB681800FFF75CFD63E0FB685A68842351
:1036A0005B00D358002B00D1E1E7FB685A68842304
:1036B0005B000021D150FB685B68A322D2009446D6
:1036C000634419683A68FB69C9B21B1AD1547B6814
:1036D0005A6880231B069A4204D12A4BF021180015
:1036E00000F024FD7B685B685A1EFB699A4228D172
:1036F000FB681B7A002B24D0FB685B688022920059
:10370000944663441B681A0001239A4313001A006D
:10371000FB685B68802189008C4663441A60FB6803
:103720005B6880229200944663441B681A0002235F
:1037300013431A00FB685B68802189008C46634450
:103740001A60FB685B6801221A62FA697B699A4217
:1037500003D0FB690133FB6189E71323FB180022C7
:103760001A701323FB181B78C0461800BD4608B01A
:10377000B0BDC046284F00001C4F0000C40400002C
:10378000244F0000E84E0000F0B58FB002AF786221
:103790000E0010001900122310229446BC4463440A
:1037A000321C1A80102310229446BC446344021C2D
:1037B0001A800F2310229446BC4463440A1C1A70DA
:1037C0001023FB18382210218C46BC44624403CAE3
:1037D00003C37B6A1800FFF70BFD03001A000123E7
:1037E0005340DBB2002B07D0684B3B60684B7B60DB
:1037F0003868796800F062FD7B6A00221A720F2334
:1038000010229446BC4463441B78012B07D9102333
:10381000FF331A005F4B1100180000F087FC0F23E4
:1038200010229446BC4463441B78002B35D11023EE
:1038300010229446BC4463441B88FF2B06D989237D
:103840005A00544B1100180000F070FC1023102295
:103850009446BC4463441B88DAB21C2110203B18F8
:103860005B181A703B185B18BB604B4BFB60122354
:1038700010229446BC4463441988786A3B6D0093D7
:10388000BA68FB68FFF71EFD03001A001F23102112
:103890008C46BC4463441A7047E0102310229446BF
:1038A000BC4463441B881B0A9AB2FF2A07D9182319
:1038B000FF331A00374B1100180000F037FC1023BB
:1038C00010218C46BC4463441B88FF210B409BB2F3
:1038D000FF2B06D98C235A002E4B1100180000F044
:1038E00025FCD1B218201026BA1912181170DAB2BC
:1038F000BB191B185A70BB191B181C00274B1D0045
:10390000122310229446BC4463441988786A3B6DA4
:10391000009322002B00FFF7D5FC03001A001F23A1
:1039200010218C46BC4463441A707B6A01221A72CF
:103930001F2310229446BC4463441B78002B04D000
:103940007B6A1800FFF704FC15E03A697B691221D5
:1039500010208446BC4461440C88786A396D00911B
:103960002100FFF7AFFC03001A001F2310218C4633
:10397000BC4463441A701F2310229446BC44634421
:103980001B78C0461800BD460DB0F0BD504F00007A
:103990001C4F0000E84E0000784F0000804F0000F0
:1039A000F0B58FB002AF78620E001000190012233C
:1039B00010229446BC446344321C1A801023102207
:1039C0009446BC446344021C1A800F231022944680
:1039D000BC4463440A1C1A701023FB1838221021BF
:1039E0008C46BC44624403CA03C37B6A1800FFF7D9
:1039F000FFFB03001A0001235340DBB2002B07D06A
:103A0000684B3B60684B7B603868796800F056FC17
:103A10007B6A00221A720F2310229446BC4463442E
:103A20001B78012B07D93C23FF331A005F4B110091
:103A3000180000F07BFB0F2310229446BC44634423
:103A40001B78002B35D1102310229446BC446344CC
:103A50001B88FF2B06D99F235A00544B11001800D6
:103A600000F064FB102310229446BC4463441B887E
:103A7000DAB21C2110203B185B181A703B185B1837
:103A8000BB604B4BFB60122310229446BC44634442
:103A90001988786A3B6D0093BA68FB68FFF712FCDF
:103AA00003001A001F2310218C46BC4463441A7083
:103AB00047E0102310229446BC4463441B881B0A31
:103AC0009AB2FF2A07D94423FF331A00374B11005B
:103AD000180000F02BFB102310218C46BC446344DB
:103AE0001B88FF210B409BB2FF2B06D9A2235A0053
:103AF0002E4B1100180000F019FBD1B2182010262F
:103B0000BA1912181170DAB2BB191B185A70BB1906
:103B10001B181C00274B1D00122310229446BC4486
:103B200063441988786A3B6D009322002B00FFF7ED
:103B3000C9FB03001A001F2310218C46BC446344B8
:103B40001A707B6A01221A721F2310229446BC4409
:103B500063441B78002B04D07B6A1800FFF7F8FA47
:103B600015E03A697B69122110208446BC44614407
:103B70000C88786A396D00912100FFF7BDFC0300C5
:103B80001A001F2310218C46BC4463441A701F2363
:103B900010229446BC4463441B78C0461800BD46BE
:103BA0000DB0F0BD884F00001C4F0000E84E000033
:103BB000784F0000804F000080B584B000AFF860FF
:103BC000B960FB1D1A70FB1D1B78002B02D0064A42
:103BD000FB681A60FB68BA685A60FB6801221A72B7
:103BE000BD4604B080BDC046A051000080B582B083
:103BF00000AF78606022002310001900BD4602B0BB
:103C000080BDC04680B582B000AF786039607B6807
:103C10005A683B685B689A420CD17B681B7A012228
:103C20005340DAB23B681B7A5340DBB2002B01D021
:103C3000012300E000231800BD4602B080BDC0464D
:103C4000B0B582B000AF786039607B685A683B6875
:103C50005B689A4204D0084B6921180000F066FAAC
:103C60007B6819687B683A6831CA31C37B68196020
:103C7000BD4602B0B0BDC0463C50000080B582B029
:103C800000AF78600023C0461800BD4602B080BD7A
:103C900080B584B000AFF860B960FB1D1A70FB6896
:103CA0005B681149BA685A50FB1D1B78002B01D084
:103CB000072200E00022FB685B680C498C466344E5
:103CC0001B681900072313405B000E2291430A0072
:103CD00013431900FB685B68044A944663440A0076
:103CE0001A60BD4604B080BD240500006C050000CC
:103CF00080B584B000AFF860B9607A60FB685B683B
:103D0000BA681C495A50FB685B687A681A495A506D
:103D1000FB685B68A022D200944663441B681A00CB
:103D200007239A431300042213431A00FB685B68BD
:103D3000A021C9008C4663441A60FB685B680122BD
:103D40001A60FB685B6801229A60FB685B680B4A3B
:103D5000944663441B681A00FF239A4313001A0019
:103D6000FB685B6805498C4663441A60BD4604B035
:103D700080BDC0460C050000140500001C050000B5
:103D800080B582B000AF78607B685B68A022D2000B
:103D9000944663441B681A0007239A4313001A00D1
:103DA0007B685B68A021C9008C4663441A607B680D
:103DB0005B680A49012252425A507B685B68084995
:103DC000012252425A507B685B680122DA607B68AC
:103DD0005B6801225A60BD4602B080BD0C05000040
:103DE0001405000080B584B000AFF860B9607A6057
:103DF000FB685A68B968A123DB00D150FB685A6898
:103E00007968A223DB00D150FB685B68084A9446BE
:103E100063441B681A00012313431A00FB685B68A4
:103E200003498C4663441A60BD4604B080BDC04659
:103E30006C05000080B582B000AF78607B685B687D
:103E40000F4A944663441B681A0001239A431300E7
:103E50001A007B685B680A498C4663441A607B6879
:103E60005A68A123DB0001214942D1507B685A687E
:103E7000A223DB0001214942D150BD4602B080BDE2
:103E80006C050000F0B589B000AF7861B960FA60E8
:103E90003B61FB681C68FB685D687B691800FFF785
:103EA000EDFE031E07D02A4B3B602A4B7B6038682F
:103EB000796800F003FA2200AC4207DD13230822E0
:103EC0009446BC44634400221A7035E0AC422CDCBA
:103ED000B86821008B1AC318FB611F488E235B0052
:103EE000C358002B01D1C046F7E77B6958688E2381
:103EF0005B000026C650BE687B695B681748844635
:103F000063441B6818008B1AF35CFF21884301008F
:103F10000B4318007B695B6810498C4663440100C1
:103F20001960AC4201D00134D2E713230822944631
:103F3000BC44634400221A70132308229446BC44F4
:103F400063441B78C0461800BD4609B0F0BDC046AA
:103F50004C50000080500000002000401C05000074
:103F6000F0B587B000AFF86039607A60BB60FB687D
:103F70001800FFF783FE031E07D0254B1C00254BBE
:103F80001D002000290000F099F97B681B681800CB
:103F90007B681A687B685B689A4204DD1323FB1810
:103FA00000221A702BE07B681B687A685268934283
:103FB00021DC3D681C00211A69187961164D8421A5
:103FC00049006958002901D1C046F7E7F9684968F6
:103FD000A325ED00AC46614409683D68CEB2211AC4
:103FE000341C6C540C4C84214900002565509342CC
:103FF00001D00133DDE71323FB1800221A701323CD
:10400000FB181B78C0461800BD4607B0F0BDC0467F
:10401000885000008050000000200040B0B586B0FD
:1040200000AFF86039607A60BB60FB681800FFF78A
:1040300025FE0300012B07D0064B1C00064B1D007C
:104040002000290000F03AF9044BBB21180000F0D1
:104050006DF8C046BC50000080500000F0500000D9
:10406000B0B586B000AFF86039607A60BB60FB68BD
:104070001800FFF703FE0300012B07D0064B1C00BE
:10408000064B1D002000290000F018F9044BCA213E
:10409000180000F04BF8C0460051000080500000AE
:1040A000F050000080B582B000AF0200FB1D1A7016
:1040B000BB1D0A1C1A70FB1D1B78032B09D00AD8E4
:1040C000002B02D0012B02D005E0002305E00123E4
:1040D00003E0022301E001235B421800BD4602B069
:1040E00080BDC04680B582B000AF78607B681B6839
:1040F000012293431A007B681A607B681B680222C6
:1041000093431A007B681A607B681B680422934300
:104110001A007B681A607B681B68072213401A002C
:104120007B681A60BD4602B080BDC04670B51A4DAE
:1041300004000E001948290000F0B8F82900002EEC
:1041400019D01748083100F06DF8164BE51804E057
:10415000013400F03BF8AC4202D020780028F7D1BF
:104160003A2000F033F8300000F06CF8012000F045
:104170004FF800F0DFF80C48103100F053F8094B0D
:10418000E51804E0013400F021F8AC42EED02078CC
:104190000028F7D1EAE7C04638530000DC5200009F
:1041A000F4520000FFFFFF7F145300000EF00F00D9
:1041B0000D2802D0EFF3088001E0EFF3098000F151
:1041C0001800016801F10201016070470F4B10B542
:1041D0001B780400002B09D00A2C0BD000F0FCF84F
:1041E0000028FBD0200000F0F9F810BD00F0EEF838
:1041F0000A2CF3D100F0F6F80028EFD000F0ECF82C
:104200000028FBD00D2000F0E9F8E7E7440000208B
:1042100070B50500002401340A20FFF7D7FFA5423E
:10422000F9D170BD0B684A6870B5934209DC04008F
:10423000451CAD18ED1A20780134FFF7C7FFAC42DA
:10424000F9D170BDF0B5C6460C268046302700B5C2
:10425000C217141A86B0544020000A2100F0E6F973
:10426000601A0D000A2100F0FBF86A4604000B20DA
:104270003300791B013E12189155002CECD14246B7
:10428000002A05DA2D229E1E03AB9B19013B1A70F2
:1042900003AB9C460B23701E604401A90196029358
:1042A000FFF7C0FF06B080BCB846F0BD10B5FFF701
:1042B000B9FF0A20FFF78AFF10BDC046F8B50E68A7
:1042C000496800AFB14223DB01318C1B035D002B39
:1042D0001BD08E4220DC230003250C33621CAB4331
:1042E0006D460733DB08DB00EB1A9D466D462E60FA
:1042F0002E00083669600100300000F01FF8002130
:104300002C1930002172FFF711FF0021FFF70EFF7B
:1043100000210348FFF70AFF00220823E0E7C04618
:1043200058530000014B024A1A60FEE70CED00E012
:104330000400FA05002010B5FFF7F4FFF0B50327DD
:1043400006003B000E430D0004003340374211D1FC
:10435000032A0FD9111F89084C1CA400EE58C6501F
:104360000433A342FAD103238900441804350434EA
:1043700049191A40002A06D05218641A0B7863545F
:1043800001318A42FAD1F0BDFF2370B51C000C4008
:104390002100030085070FD125022C432504254366
:1043A000032A09D9141FA408A400061DA41920C3B8
:1043B000A342FCD103242240D418002A03D0197050
:1043C0000133A342FBD170BD016070470122014B54
:1043D0001A707047440000200120704710B500F0AB
:1043E00003F810BD0120704710B51B4A82B00021B0
:1043F000535E002817D1012B0AD0184CE318013B5B
:1044000018700423181C211CABBE031C012313804D
:104410006B46DA1D002313700333181C111CABBE4E
:10442000031C02B010BD0D4CE118013301391BB261
:1044300008701380802B03D00A28F2D1012BF0D012
:104440000021E318013B19700423181C211CABBE8A
:10445000041C033B1380E4E74600002048050020CD
:1044600003460B437FD4002243088B4274D30309D5
:104470008B425FD3030A8B4244D3030B8B4228D376
:10448000030C8B420DD3FF22090212BA030C8B429C
:1044900002D31212090265D0030B8B4219D300E03C
:1044A000090AC30B8B4201D3CB03C01A5241830BC1
:1044B0008B4201D38B03C01A5241430B8B4201D371
:1044C0004B03C01A5241030B8B4201D30B03C01A9A
:1044D0005241C30A8B4201D3CB02C01A5241830A14
:1044E0008B4201D38B02C01A5241430A8B4201D343
:1044F0004B02C01A5241030A8B4201D30B02C01A6D
:104500005241CDD2C3098B4201D3CB01C01A5241D3
:1045100083098B4201D38B01C01A524143098B425C
:1045200001D34B01C01A524103098B4201D30B0145
:10453000C01A5241C3088B4201D3CB00C01A52416A
:1045400083088B4201D38B00C01A524143088B422F
:1045500001D34B00C01A5241411A00D201465241C8
:10456000104670475DE0CA0F00D04942031000D3E7
:104570004042534000229C4603098B422DD3030A3C
:104580008B4212D3FC22890112BA030A8B420CD34C
:10459000890192118B4208D3890192118B4204D375
:1045A00089013AD0921100E08909C3098B4201D3F5
:1045B000CB01C01A524183098B4201D38B01C01A2F
:1045C000524143098B4201D34B01C01A52410309A6
:1045D0008B4201D30B01C01A5241C3088B4201D355
:1045E000CB00C01A524183088B4201D38B00C01A02
:1045F0005241D9D243088B4201D34B00C01A5241D9
:10460000411A00D20146634652415B10104601D365
:104610004042002B00D54942704763465B1000D3EF
:10462000404201B5002000F005F802BD0029F8D095
:0846300016E770477047C04611
:1046380001000000010000005F6164615F6D616955
:104648006E0000006D6963726F6269742D696F7323
:104658002E616473000000006D6963726F62697493
:104668002D696F732E616462000000006661696CD9
:10467800656420707265636F6E646974696F6E201B
:1046880066726F6D206D6963726F6269742D696FF0
:10469800732E6164623A313330000000010000007B
:1046A8002D0000006661696C656420706F73746327
:1046B8006F6E646974696F6E2066726F6D206D69C4
:1046C80063726F6269742D696F732E6164623A3127
:1046D80033330000010000002E0000006661696CA1
:1046E800656420707265636F6E646974696F6E20AB
:1046F80066726F6D206D6963726F6269742D696F80
:10470800732E6164623A3133320000006661696C6D
:10471800656420707265636F6E646974696F6E207A
:1047280066726F6D206D6963726F6269742D696F4F
:10473800732E6164733A3533010000002C000000C9
:104748006661696C656420707265636F6E64697414
:10475800696F6E2066726F6D206D6963726F626932
:10476800742D696F732E6164733A35366661696CAE
:10477800656420707265636F6E646974696F6E201A
:1047880066726F6D206D6963726F6269742D696FEF
:10479800732E6164733A36354E6F2050574D206141
:1047A8007661696C61626C65612D657863657074AA
:1047B8002E6164620000000001000000100000008B
:1047C8006661696C656420707265636F6E64697494
:1047D800696F6E2066726F6D206D6963726F6269B2
:1047E800742D696F732E6164733A363800020000C5
:1047F8006D6963726F6269742D74696D652E616489
:10480800620000006661696C656420706F73746390
:104818006F6E646974696F6E2066726F6D206D6962
:1048280063726F6269742D74696D652E6164733A81
:1048380035340000010000002E0000006661696C3C
:10484800656420707265636F6E646974696F6E2049
:1048580066726F6D206D6963726F6269742D746919
:104868006D652E6164733A35330000000100000065
:104878002D0000006661696C656420706F73746355
:104888006F6E646974696F6E2066726F6D206D69F2
:1048980063726F6269742D74696D652E6164733A11
:1048A800363000006661696C656420707265636FFC
:1048B8006E646974696F6E2066726F6D206D6963CE
:1048C800726F6269742D74696D652E6164733A350F
:1048D800390000004D4943524F4249542E54494D26
:1048E800452E4D425F44454C41595300010000009C
:1048F8000000000004000000DC480000DC48000064
:104908000000000048490000A0520000010000001B
:1049180007000000310A000000000000000000004D
:104928000000000000000000490A00005D0A0000C5
:10493800030000001C49000000000000F4480000CB
:10494800090C0000510C0000850C00006E72662DE9
:10495800636C6F636B2D7365745F686967685F6606
:104968007265715F65787465726E616C5F66726599
:104978007175656E63792E61646200006E72662DD2
:10498800636C6F636B2E6164620000006E72662D4B
:104998006576656E74732E61646200006E72662DB2
:1049A8006770696F2E616473000000006E72662D77
:1049B8006770696F2E616462000000006661696C4F
:1049C800656420696E6865726974656420707265D3
:1049D800636F6E646974696F6E2066726F6D2068AC
:1049E800616C2D6770696F2E6164733A363300000D
:1049F80001000000320000006661696C656420698E
:104A08006E6865726974656420707265636F6E6440
:104A18006974696F6E2066726F6D2068616C2D67AE
:104A280070696F2E6164733A373300006661696C90
:104A3800656420696E686572697465642070726562
:104A4800636F6E646974696F6E2066726F6D20683B
:104A5800616C2D6770696F2E6164733A3933000099
:104A6800C6170000CA170000CE170000D2170000B2
:104A7800D6170000DA170000DE1700004E52462E47
:104A88004750494F2E4750494F5F504F494E5400A9
:104A9800010000000000000004000000844A00003B
:104AA800844A000000000000EC4A0000FC510000AD
:104AB8000100000007000000A51100000000000030
:104AC800000000000000000000000000BD11000010
:104AD800E11100000A000000C04A000000000000C8
:104AE800984A0000011200003112000089120000EB
:104AF800E11300003D140000A51300000D1500008F
:104B080071150000D5150000291600006E72662D7B
:104B1800696E74657272757074732E6164620000D8
:104B28006E72662D7274632E61646200AE1A0000A4
:104B3800D01A0000F21A0000561B0000BA1B000031
:104B48006E72662D7370695F6D61737465722E6124
:104B5800647300006661696C656420706F737463C8
:104B68006F6E646974696F6E2066726F6D206E7205
:104B7800662D7370695F6D61737465722E616473FD
:104B88003A363100010000002F0000006661696CB0
:104B9800656420706F7374636F6E646974696F6E97
:104BA8002066726F6D206E72662D7370695F6D611D
:104BB800737465722E6164733A3636006661696C87
:104BC800656420707265636F6E646974696F6E20C6
:104BD80066726F6D206E72662D7370695F6D61739A
:104BE8007465722E6164733A373800006E72662DF0
:104BF8007370695F6D61737465722E616462000021
:104C0800010000002E0000006661696C6564207078
:104C18007265636F6E646974696F6E2066726F6D1A
:104C2800206E72662D7370695F6D61737465722E84
:104C38006164733A393000006661696C65642069A3
:104C48006E6865726974656420707265636F6E64FE
:104C58006974696F6E2066726F6D2068616C2D7360
:104C680070692E6164733A3630000000010000005C
:104C7800310000006661696C656420696E68657260
:104C88006974656420707265636F6E646974696FB6
:104C98006E2066726F6D2068616C2D7370692E616D
:104CA80064733A36380000006661696C656420698F
:104CB8006E6865726974656420707265636F6E648E
:104CC8006974696F6E2066726F6D2068616C2D73F0
:104CD80070692E6164733A37360000006661696C4A
:104CE800656420696E6865726974656420707265B0
:104CF800636F6E646974696F6E2066726F6D206889
:104D0800616C2D7370692E6164733A383400000049
:104D1800FA1E0000001F0000061F00000C1F000004
:104D2800121F0000181F00004E52462E5350495FB4
:104D38004D41535445522E5350495F4D41535445AC
:104D48005200000001000000000000000400000004
:104D5800304D0000304D000000000000A04D000064
:104D68006C5200000100000007000000C11C000098
:104D7800000000000000000000000000000000002B
:104D8800D91C0000FD1C00000A000000744D000042
:104D9800000000004C4D0000A5200000B9200000D4
:104DA800B121000001250000F5250000791D000053
:104DB800051E0000551E0000851E0000452000004D
:104DC8006E72662D7461736B732E616462000000ED
:104DD8006E72662D74696D6572732E61647300005E
:104DE8006E72662D74696D6572732E61646200005F
:104DF8006661696C656420706F7374636F6E646953
:104E080074696F6E2066726F6D206E72662D74699C
:104E18006D6572732E6164733A37320001000000C9
:104E28002B0000004E52462E54494D4552532E54E5
:104E3800494D45520000000000000000000000003D
:104E4800040000002C4E00002C4E00000000000062
:104E5800904E000001000000070000000929000032
:104E6800000000000000000000000000000000003A
:104E7800212900004529000013000000644E0000AD
:104E880000000000404E0000C9290000112A00005F
:104E9800B52A00005D2B0000B12B0000812900001D
:104EA80099290000B1290000B52C0000212F00002D
:104EB8004D2F0000752F0000B12F0000DD2F0000DE
:104EC800F52F00000D300000253000003D300000B7
:104ED800653000006E72662D7477692E6164730008
:104EE8006E72662D7477692E616462006661696C02
:104EF800656420707265636F6E646974696F6E2093
:104F080066726F6D206E72662D7477692E61647398
:104F18003A363400010000002700000007000000B6
:104F28006661696C656420707265636F6E6469742C
:104F3800696F6E2066726F6D206E72662D74776968
:104F48002E6164733A3733006661696C656420705A
:104F58007265636F6E646974696F6E2066726F6DD7
:104F6800206E72662D7477692E6164733A38340046
:104F78000000000000000000000000000100000028
:104F88006661696C656420707265636F6E646974CC
:104F9800696F6E2066726F6D206E72662D74776908
:104FA8002E6164733A3935004E52462E5457492EB5
:104FB8005457495F4D4153544552000001000000C9
:104FC8000000000004000000B04F0000B04F0000D7
:104FD80000000000185000003452000001000000DA
:104FE80007000000C13000000000000000000000C1
:104FF8000000000000000000D9300000153100005A
:1050080009000000EC4F000000000000C44F000041
:10501800C5320000F934000089370000A1390000CA
:1050280085310000BD310000F1310000213200005F
:10503800993200006E72662D756172742E61647308
:10504800000000006661696C656420696E686572BD
:105058006974656420707265636F6E646974696FE2
:105068006E2066726F6D2068616C2D756172742E8A
:105078006164733A3630000001000000320000001D
:105088006661696C656420696E68657269746564D7
:1050980020707265636F6E646974696F6E206672E2
:1050A8006F6D2068616C2D756172742E6164733A3E
:1050B800373600006661696C656420696E686572E0
:1050C8006974656420707265636F6E646974696F72
:1050D8006E2066726F6D2068616C2D756172742E1A
:1050E8006164733A363800006E72662D75617274A9
:1050F8002E616462000000006661696C6564206965
:105108006E6865726974656420707265636F6E6439
:105118006974696F6E2066726F6D2068616C2D7599
:105128006172742E6164733A383400004E52462E10
:10513800554152542E554152545F444556494345B2
:105148000000000001000000000000000400000052
:10515800345100003451000000000000A05100004C
:10516800D85200000100000007000000ED3B0000DD
:105178000000000000000000000000000000000027
:10518800053C0000413C00000A000000745100008A
:10519800000000004C5100007D3C0000853E0000EE
:1051A8001D400000613F000061400000913C00008C
:1051B800F13C0000813D0000E53D0000353E000067
:1051C80048414C2E4750494F2E4750494F5F504F4A
:1051D800494E5400000000000000000004000000D8
:1051E800C8510000C8510000000000000000000085
:1051F800DC5100000000000048414C2E4932432E8B
:105208004932435F504F5254000000000000000034
:1052180000000000040000000052000000520000DE
:105228000000000000000000145200000000000010
:1052380048414C2E5350492E5350495F504F5254B9
:105248000000000000000000000000000400000052
:105258003852000038520000000000000000000032
:105268004C5200000000000048414C2E54494D4566
:105278002E44454C41595300000000000000000036
:10528800040000007052000070520000000000008E
:1052980000000000805200000000000048414C2E31
:1052A800554152542E554152545F504F52540000AC
:1052B800000000000000000004000000A4520000EC
:1052C800A45200000000000000000000B8520000D6
:1052D80000000000496E206C617374206368616E81
:1052E80063652068616E646C657200005072656465
:1052F8006566696E656420657863657074696F6E4C
:105308002072616973656420617420005573657249
:1053180020646566696E6564206578636570746984
:105328006F6E2C206D6573736167653A200000000D
:105338000100000016000000010000001F0000002E
:105348000100000021000000010000000100000031
:045358000000000051
:10535C000000000000000000000000000000000041
:10536C000000000000000000000000000000000031
:10537C000000000000000000000000000000000021
:10538C000000000000000000000000000000000011
:08539C00000000000000010008
:040000030000040BEA
:00000001FF
